:10100000003E0020CD27000039D70000B92700009E
:10101000B9270000B9270000B92700000000000030
:10102000000000000000000000000000892800000F
:10103000B92700000000000031280000B927000097
:10104000312A0000097A0000312A0000312A00000C
:10105000312A0000312A0000312A0000312A000024
:10106000312A0000312A0000312A0000312A000014
:10107000312A0000312A0000312A0000312A000004
:10108000312A0000312A0000312A0000312A0000F4
:10109000312A0000312A0000312A0000312A0000E4
:1010A000312A0000312A0000312A0000312A0000D4
:1010B000312A0000312A0000312A0000312A0000C4
:1010C000312A0000312A0000312A0000312A0000B4
:1010D000312A0000312A0000312A0000312A0000A4
:1010E000312A0000312A0000312A0000312A000094
:1010F000312A0000312A0000312A0000312A000084
:1011000053B94AB9002908BF00281CBF4FF0FF316E
:101110004FF0FF3000F094B9ADF1080C6DE904CE4A
:1011200000F006F8DDF804E0DDE9022304B07047C2
:101130002DE9F0470646DDF820E00846B4460D46A6
:10114000002B4DD18A4214466BD9B2FA82F242B1D9
:10115000C2F12003954026FA03F394401D4306FA9A
:1011600002FC260CA7B2B5FBF6F14FEA1C4306FBC6
:10117000115543EA054301FB07F0984209D9E318EA
:1011800001F1FF3580F0FC80984240F2F98002398D
:1011900023441B1A1FFA8CFCB3FBF6F006FB10333A
:1011A0004CEA034C00FB07F363450AD914EB0C0C23
:1011B00000F1FF3580F0E680634540F2E380A4440F
:1011C000023840EA0140ACEB030C0021BEF1000FF5
:1011D00004D02CFA02F30022CEE90032BDE8F087F9
:1011E0008B4208D9BEF1000F01D0CEE90061002189
:1011F0000846BDE8F087B3FA83F1174600294CD1C1
:10120000834202D3B24200F20A81B6EB070C60EBD4
:10121000030301201D46BEF1000FDFD0CEE900C55B
:10122000DCE7002A00F094801A46B4FA84F3002B1D
:1012300040F0AA800B1B270CA6B201214FEA1C40EC
:10124000B3FBF7F507FB153340EA034306FB05F054
:10125000984207D9E31805F1FF3802D2984200F20C
:10126000E38045461B1A1FFA8CFCB3FBF7F007FB23
:1012700010334CEA034C06FB00F3634508D914EB2A
:101280000C0C00F1FF3602D2634500F2CA803046F2
:10129000ACEB030C40EA054098E7C1F120058B4018
:1012A00022FA05FC4CEA030C00FA01F426FA05F3D5
:1012B000E84002FA01F923434FEA1C4206FA01FA18
:1012C000B0FBF2F71FFA8CF602FB17001C0C44EA85
:1012D000004407FB06F0A0420AD91CEB040407F106
:1012E000FF3880F09A80A04240F29780023F644429
:1012F000241A9BB2B4FBF2F002FB104443EA04430D
:1013000000FB06F69E4209D91CEB030300F1FF34F3
:1013100080F081809E427ED90238634440EA0740D3
:10132000A0FB09749B1BA3423E46A04663D360D03A
:10133000BEF1000F0AD0BAEB060263EB080303FA12
:1013400005F5CA401543CB40CEE90053002145E7DF
:10135000730843EAC1734A08190C41EA02414FEA93
:10136000C67C9BB2B2FBF4F02646254627461F22D8
:1013700043EA0143B1FBF4F15B1B41EA00415DE745
:10138000294606E728461CE71A46C3F120019C407F
:1013900026FA01F320FA01F190400343270C06FAE4
:1013A00002FCB1FBF7F0A6B207FB1015190C41EADD
:1013B000054100FB06F58D423BD9611801D28D42F3
:1013C00020D8491B0138B1FBF7F5A84605FB06F507
:1013D00007FB18119BB243EA0143AB4227D2E31843
:1013E00008F1FF31C8D2AB42C6D2A8F102012344B2
:1013F000C2E7BA459CD2B7EB090664EB0C0401388E
:10140000A04695E7651B29440238B1FBF7F5A846CD
:1014100005FB06F5DCE7204680E7474668E7084617
:10142000F9E6A444023833E7023D23441AE7414673
:10143000A2E7491BB1FBF7F5A84605FB06F5C7E790
:10144000704700BF00000000F0B5694C94F83230DE
:1014500091B003F00103002800F09580002B40F0CC
:101460008680627E94F8253004EB820204EB8303CD
:10147000D5699B6A1E461DB32B4613F8020B0B93CE
:10148000C0F3801005F054F8062201460B980CF0CA
:10149000DAF92A78530606D50B98062103F008FDE1
:1014A000002800F09580334613F8020B0B93C0F32D
:1014B000801005F03DF8062201460B980CF0C3F9A8
:1014C000237D0121C3F302030DF137008DF837307E
:1014D00003F060FE002853D002463146284606F04D
:1014E00015F8444A444B268E07210025E0FB0231C3
:1014F0001846C4E902553CA3D3E900232570FFF741
:10150000FFFD606004F0E6FF0694029562683B4BC5
:10151000049200F109073A4802F247121A60912139
:101520000993A6FB000301FB0631364B0793364BAC
:10153000059302230E930EAB08934FF6FF730393AC
:1015400029A3D3E90023FFF7DBFD0321CDE90050F8
:101550003B460222284604F0F7FE0EA905F020FAC9
:1015600070B994F8323043F0010384F8323000202F
:1015700011B0F0BD1E4805F035FAA04200D000DEE3
:101580000C2011B0F0BD002BF1D0204605F01EFA62
:10159000A0421FD10FAD022203211A4B009500205B
:1015A0000F9204F055FF294605F0FAF90028E1D121
:1015B000164805F029FA88B90D4805F013FAA0423B
:1015C0000AD194F8323023F0010384F83230CEE7A8
:1015D0001220CDE700DEDDE700DEF2E77830EBD069
:1015E00000DEE9E7AFF300808D49FD1A0700000037
:1015F0006C15002000CA9A3B8C49FD1A601500202A
:10160000002AE784B1650000817500007C15002088
:1016100070B5037D8AB0C3F302030D460446012171
:101620000DF1230016468DF8233003F0B3FD31464B
:101630000246284605F06AFF1D4A1E4B0721E0FBC3
:101640000231184618A3D3E90023FFF759FD636858
:101650009842054621D21B1A00220192164A029393
:10166000164BA21A0221A3FB023201EB1212002335
:1016700009AE099112490591CDE90333032106967C
:10168000D2B20093184604F0BDFE314605F088F949
:1016900038B9656000200AB070BDFBD9C21A0023BA
:1016A000DBE70C200AB070BD8D49FD1A0700000071
:1016B00000CA9A3B8C49FD1A6C1500204FECC44EB1
:1016C000B165000000000000F0B583B0C4680646B4
:1016D00007F07CF9042007F09DF90021084607F087
:1016E0008BF900222521082007F0F2F9304B0193F5
:1016F00001A807F0D9F92F4940F25B6007F082FAA0
:101700002279134662F3C5032371204606F0C2FF17
:1017100027683568384606F053FC0544726805F1C1
:101720000901012007F094FB07F024FC204606F095
:1017300083F8811C2A46C9B2384606F043FC40B9FA
:10174000204606F019FC10B9002003B0F0BD00DE01
:10175000FAE70546184A1949194840F211430BF0B7
:10176000A4FE184B0721A5FB030301FB05310EA3C3
:10177000D3E90023FFF7C4FC1349024613480BF0DA
:1017800094FE002585F31188BFF36F8F032318465D
:1017900002DF0F48214607F0EDF807F0DDF96FF0A2
:1017A0008B00D2E7AFF3008000CA9A3B0000000034
:1017B000D6BE898E55555500640A0100B00A010055
:1017C000B40A01008D49FD1A000B0100D40A010082
:1017D0000983000038B50749074D1422044602FB6F
:1017E000001128460CF02FF8044B1B5D2B75044BA1
:1017F0001C7038BD020C01007C040020EE0B0100BF
:101800003A1B0020F7B5124C124E0025002100278C
:1018100040F267600EF05FFD0F49104800973B46AD
:10182000022203F0B9F980B14FF47A720023204606
:101830002946FFF765FC0EF04EFD14F5C81445F17E
:101840000005BD4208BFB442E0D103B0F0BD00BF07
:10185000E7031900E703960058090100A0010020E2
:1018600010B50E4B1B7814220133B3FBF2F102FBCF
:101870001133DCB203F090FA00221146104602F058
:10188000CDFF2046FFF7A6FFFFF7BCFFBDE81040E5
:1018900003484FF0E17200230AF0A4BD3A1B002078
:1018A0000000002008B5002002F0CEFD48B9FFF787
:1018B00091FFFFF7A7FF04484FF0E17200230AF001
:1018C00091FD002008BD00BF00000020014B1B68F7
:1018D000184700BFB401002007B50B46002102469F
:1018E0000091024800F004F803B000BDCD180000DC
:1018F0002DE9F04F95B08B46029091461C4600258D
:1019000099F8000008B9284642E225280CD0029B2D
:10191000594698470028C0F23B8209F1010301357E
:101920000493DDF81090EBE7182200210EA80BF0CD
:1019300095FF99F801A0BAF1250F52D0002109F1C5
:1019400001028E468C460F460E4613782B2B10460E
:101950007CD075D8202B7CD0232B7DD029B19DF84D
:10196000401041F040018DF84010BEF1000F05D04D
:101970009DF8401041F020018DF84010BCF1000F9F
:1019800005D09DF8401041F010018DF840102FB1A6
:101990009DF8401041F008018DF840102EB19DF8DF
:1019A000401041F004018DF840109DF8401001F006
:1019B0004406442E03D121F040018DF840109DF8DB
:1019C00040102A2B41F080018DF8401040F0AB8090
:1019D000531C9DF8412042F001028DF84120002760
:1019E00052E009F102034FF00008049347469DF8C6
:1019F0004120D00740F1498154F8047B002F06DADA
:101A00009DF8401041F004018DF840107F425107CD
:101A100040F1428154F8042B42EAE2789DF84210EA
:101A20009DF8412001F007010139C2F3C3020329E7
:101A300000F25C81DFE811F036016F01A001960130
:101A40002D2B0CD0302B89D1012100E00127013250
:101A50007BE74FF0010CFAE74FF0010EF7E70126A4
:101A6000F5E70CFB07170132303F1178A1F1300682
:101A7000092E1346F5D99042B1D09DF84020F90FB8
:101A800061F341028DF840201A782E2A9DF84120FA
:101A90000CBF0121002161F341028DF841204BD19F
:101AA00059782A2943D05A1C4FF000080A26117889
:101AB000A1F130000928134641D99DF84020C2F316
:101AC000400141EAD87161F341028DF840201A7853
:101AD0006C2A55D039D8682A3FD06A2A59D04C2A66
:101AE0005FD013F801AB0493BAF1780F13D8BAF1B1
:101AF0006D0F9DF8412061D8BAF1690F0BD8BAF18A
:101B0000570F77D8BAF1410F00F0A980AAF145022A
:101B1000022A40F2A4809DF8402042F001028DF894
:101B2000402000228FE000274FF00A0C9DE742F092
:101B300004028DF8412002334FF00008C7E706FB8E
:101B400008180132A8F13008B1E7742A25D07A2AA2
:101B5000C7D19DF8412006210CE05A78682A9DF8EB
:101B6000412006D1012161F3C6028DF841200233E4
:101B7000B7E7022161F3C6028DF841200133B0E7D7
:101B80005A786C2A9DF8412001D10421EBE703210A
:101B9000F0E79DF841200521ECE79DF84120072161
:101BA000E8E7BDF8402022F4F04222F0020242F4BD
:101BB000804242F00202ADF84020DFE7AAF16E0059
:101BC000C0B20121814040F28240014222D111F095
:101BD000240F4DD1CB079ED59DF8421002F078021C
:101BE000A2F14006032060F3020172428DF8421018
:101BF000724128E0AAF15801C9B2012000FA01F1AE
:101C000011F4624F2BD111F4043F26D140F60100AC
:101C1000014280D002219DF8420002F07802402A61
:101C200061F3020008BF9DF840108DF8420004BF28
:101C300041F001018DF84010003A18BF0122BAF1BD
:101C4000630F18BF00229DF84010C1F3400002430B
:101C500062F341018DF84010C9E60146DBE79DF8CB
:101C60004220042161F302028DF842200122EAE7BA
:101C70009DF84210032012F0780F60F302018DF8F6
:101C8000421014BF01220022DDE79DF94010002917
:101C9000A8BF4FF0FF37BAE612F0020F08BF4FF0AF
:101CA000FF38BBE6D11E042904D8DFE801F0160C8A
:101CB0000C161600012A54F8041B12D0022A26D052
:101CC0000846C91710E0E01D20F0070004464068F0
:101CD00054F8081BCDE90E1008E054F8041BC8178F
:101CE000F8E748B241F3C011CDE90E019DF840106C
:101CF00011F003064FD04E46049AB24233463FD805
:101D0000A6EB0906002E304642DB354409E608B250
:101D100041F3C031E8E7D11E042904D8DFE801F01F
:101D20000B12121A1A00012A54F8041B17D0022AA7
:101D300016D189B214E02668211D0020CDE90E607D
:101D40000C46D3E7073424F007042146606851F8B5
:101D5000086BF3E72146002051F8046BEEE7C9B2A7
:101D60000020B7E7E11D21F0070101F10804D1E9E6
:101D70000001CDE90E01B9E754F8041B0E91B5E757
:101D80001878029B59469847002806F10106B3DAF5
:101D900015B0BDE8F08FBAF1780F3FF6C2ADBAF1D9
:101DA000620F18D8BAF1250F4AD0BAF1580F7FF454
:101DB000B8AD0DF13603009310AA08ABDDE90E01B2
:101DC0008DF843A00BF02DFB119B9DF843A0129AB8
:101DD0000393814697E0AAF1630015283FF6A1AD71
:101DE00001A656F820F000BF371F0000511F000069
:101DF00023190000231900002319000023190000F3
:101E0000511F0000231900002319000023190000AE
:101E1000231900007D1F0000791F0000D11E000063
:101E20002319000023190000511E0000231900008F
:101E3000791F00002319000023190000791F0000FA
:101E4000029B5946504698470028A1DB013568E5BA
:101E5000B8F1000FDDF8389036DB414648460BF00C
:101E600005FDB9F1000F3FF45CAD002609EB00035E
:101E70000593324603969DF8421011F01003069325
:101E800000F099800230039B18444B0648BF80182D
:101E9000002F40F3A5809DF8408018F0040FA7EBB9
:101EA000000740F09D8018F0400F00F0BD804EB15B
:101EB000029B5946304698470028FFF669AF013526
:101EC000C8F380063022B0E048460BF082FCC8E739
:101ED0000E98002866D070238DF843300DF136033C
:101EE000009310AA08AB00210BF09BFA119B0393FF
:101EF0009DF84230129A43F0100381468DF842302B
:101F000000264FF0780A0DF13600B8F1000FA0EB73
:101F100009000ADB9DF84010804521F040018DF852
:101F2000401002D9A8EB0003039306B101300DF174
:101F3000360305939FE70E9A8DF8202000260DF1B9
:101F400021033246039605930DF12009012092E703
:101F50000A075EBFC1F300114901CEB2DDE90E12DE
:101F600048BF2B26002ABFF624AF494262EB42024B
:101F7000CDE90E122D261CE700261AE70E9B072A34
:101F80003FF6CFACDFE802F00C04060C08080C0C9E
:101F90001D70C6E41D80C4E4EA17C3E90052C0E422
:101FA0001D60BEE4394B0390064602460593A3F13B
:101FB000050905205FE70B0748BF013063E71046BE
:101FC0000792029B594698470028079AFFF6E0AE11
:101FD0004146002908F1FF38F1DC3D446D1A4746BF
:101FE0003EB1029B5946304698470028FFF6D0AED6
:101FF00001359DF84220D10601D4130707D5029B75
:102000005946302098470028FFF6C2AE0135069B9E
:102010003BB1029B5946504698470028FFF6B8AEA0
:102020000135039E2E440AE02022B846D0E7029BE9
:102030005946302098470028FFF6AAAE0135731B99
:10204000002BF4DC4E46059AB242334614D8A6EB78
:102050000906002E3046FFF69BAE35442F447B1B0D
:10206000002B7FF75EAC029B594620209847002842
:10207000FFF68EAE0135F2E71878029B5946984775
:10208000002806F10106DEDA82E600BF970D0100A6
:102090002DE9F047068B0446300790460CD5012900
:1020A0000CBF46F0100646F02006268388F3118800
:1020B000BFF36F8FBDE8F087022906F0070640F0F6
:1020C0008D8020460BF019FA05285FD801A353F83C
:1020D00020F000BFAD200000DD2100008D210000B8
:1020E00051210000692100007B21000001F007035D
:1020F0005A1F012A1DD80022062B256821F007014E
:10210000C4E9002209D135B12B46628B01326283CA
:102110001B68002BF9D141F00201218320460BF00E
:10212000ECF94FF00009002866D041F0200121832E
:1021300062E0042B09D121F00701218320460BF036
:10214000DCF910B141F0200121830025A94653E0BC
:102150002369D3F80090238B23F0070343F0060391
:10216000238300252F4647E02369D3F80490238B6F
:1021700023F0070343F00403F2E72369D3F8089040
:10218000238B23F0070343F00503E9E70025A94665
:10219000E8E7012243F00803238388F31188BFF3A3
:1021A0006F8F002A36D1002D47D1B9F1000F02D030
:1021B0002A492046C847EFF31188202383F3128869
:1021C000BFF36F8F238B23F008039BB22383D906C1
:1021D0003BD523F01002228303F007066769218BA9
:1021E000002F83DA0023256821F00701C4E90033BA
:1021F00041F0010121839946238B03F0070AB24580
:1022000002D0A268002AC4D115B9B9F1000FDED0FE
:102210000022BFE7A1680029C5D00E680029C2D0FE
:10222000D1F804803B4652462046C0471EB1336871
:1022300031461E46F2E73346FAE729463B46524608
:1022400020462D680BF085F9ADE79A067FF52EAF95
:1022500023F02002228303F0070632E77DD5000039
:10226000014B0360002070476809010007B51B4956
:102270001B480BF0B0FC70BB1A4919480BF0ABFCC3
:1022800048BB194916480BF0A6FC20BB1749144857
:102290000BF0A1FCF8B90146154A11480BF0A9FF53
:1022A000C8B9024613490E4801230CF07BF890B9D7
:1022B00001230093014602230948EF220BF0AFFBF4
:1022C00048B907480BF0D4FB28B9054803B05DF8BE
:1022D00004EB0BF0FCBB03B000BD00BF2C020020E0
:1022E0001806002014020020FC010020E401002058
:1022F000B8010020980D010008B50348034A0021E9
:10230000121A0BF011FA08BD98060020541B002089
:102310000748084A084908B5121A0BF007FA074897
:10232000074A0849BDE80840121A0BF0FFB900BF80
:10233000000000209406002024140100000000206A
:10234000000000202414010038B505460C4699B160
:10235000D1E901230F4809680BF04CF8D4E90423B4
:10236000E1680D480BF046F8E1690C480BF042F8C3
:10237000A1690B480BF03EF8012D05D1EFF3058163
:10238000084810390BF036F821462846BDE8384099
:1023900009F0D6BAB10D0100E10D0100110E0100E6
:1023A000210E0100500E010030BFFFF7FDBF00BF3E
:1023B000054B5A699B689A421FBF044A536843F011
:1023C00080535360704700BF041B002000ED00E005
:1023D0002DE9F843324D80463248894617460BF0C6
:1023E00009F8AB6ADE0622D52F480BF003F811245A
:1023F000AB6A1D0703D52D480AF0FCFF1224284DB7
:10240000AB6A980715D52A480AF0F4FF6E6BAB6AE1
:10241000190642D5274831460AF0ECFFB9F1000F02
:1024200003D0AB6A23F08003AB62132403E01024D3
:10243000DEE76FF015061A4DAB6ADA0703D51E48C2
:102440000AF0D8FF1424AB6A9B0603D51B480AF098
:10245000D1FF1524124B9A6AD50602D49A6A9007C6
:102460000AD55B68190507D54146304600F0AAFA3F
:1024700010B180F309880224094B9A6A920642BF80
:102480005A6A22F400525A629A6A42F0FF029A6231
:1024900000233B702046BDE8F8836FF01506C4E7C3
:1024A00000ED00E0640E01007B0E0100AF0E0100A4
:1024B000C30E0100DC0E0100F30E0100130F01003A
:1024C00010B51D4C1D480AF095FFA36A990130D53F
:1024D0001B480AF08FFF1E20A36ADA0103D51948B2
:1024E0000AF088FF1F20144CA36A1B0303D516486B
:1024F0000AF080FF2120A36A590303D513480AF08C
:1025000079FF22200C4CA36A9A0303D510480AF0E5
:1025100071FF2320A36ADB0303D50E480AF06AFF8C
:102520002420054A936A6FEA03436FEA13439362D8
:1025300010BD1D20D0E700BF00ED00E0430F0100FB
:102540005C0F0100700F01008B0F0100AA0F01004A
:10255000D00F0100EB0F010070B5244C0646244853
:102560000D460AF047FFA36AD90435D521480AF081
:1025700041FF1720A36A1A0503D51F480AF03AFF46
:1025800018201A4CA36A9B050FD51C480AF032FF8D
:10259000A16BA36A180407D519480AF02BFF1EB1D6
:1025A000A36A23F40043A3621920104CA36A5905BF
:1025B00003D514480AF01EFF1A20A36ADA050DD5C8
:1025C00011480AF017FF1B20084A936A43F47F431F
:1025D000936200232B7070BD1620CBE7A36A9B0487
:1025E000F2D50A480AF006FF1C20EDE700ED00E0F6
:1025F000171001002E100100AF0E01004010010065
:102600005A100100701001008C100100130F01001E
:102610002DE9F041574B5F688AB0C7F308040026E4
:1026200086F31188BFF36F8F02F07F43B3F17F4FC2
:1026300006D1150717D5500713D44F480AF0DAFE14
:10264000002635464FF00008E31E8DF80780092B61
:1026500000F28180DFE803F00A7579717F7F7F7F68
:102660007F7D0D46EEE705460126EBE74348414CEA
:102670000AF0C0FE8DF80780E36A9A0704D5404847
:102680000AF0B8FE002426E0E36A002B01DA3D4898
:10269000F6E7E36A5B00F5D53B480AF0ABFE6369F9
:1026A000AA6943F480736361BFF34F8FBFF36F8FE9
:1026B000636932F8022C23F480736361BFF34F8F98
:1026C000BFF36F8F4DF602739A421ED129682F48CF
:1026D0000AF090FE2C689DF807309BB9202229460D
:1026E00002A80BF0B0F8099B002E40D0C3F30802FB
:1026F00022B96FEA53236FEA4323099302A92046C4
:10270000FFF722FE0AB0BDE8F081A36ADBB233B165
:102710000DF1070201212846FFF75AFE0FE0A36AD8
:1027200013F47F4F05D00DF107010120FFF714FFCF
:1027300005E0A36AB3F5803FA4D3FFF7C1FE0446CA
:10274000C9E70DF107020021E5E70DF107010020BF
:10275000ECE70F4894E70F4B0F49104817F4F87F48
:10276000A4F1100208BF19460AF044FE8AE76FF38D
:102770000803C2E700ED00E0D3100100FF100100E4
:102780001711010039110100481101006811010001
:1027900085110100A5100100BA100100AA11010065
:1027A000044B5A6942F010025A615A6922F0080239
:1027B0005A61704700ED00E0EFF30880EFF3098104
:1027C00001B57246FFF724FF01BD00BF0B4880F33F
:1027D000088808F073FC202080F3118808484FF423
:1027E0000461401880F30988EFF314800221084344
:1027F00080F31488BFF36F8F00F0ACF8003E002028
:1028000040300020084B9B6883420BD1EFF30583D7
:1028100043B1064B5A6842F080525A605A6A22F419
:1028200000425A620AF010B9041B002000ED00E0DB
:1028300013498A684FF030001044EFF3098C80E8A8
:10284000F01F202080F31288BFF36F8F0D4F4FF0E1
:1028500000664A698A603E60D2F888000023C2F8A8
:10286000883080F3118804B5104600F0FFF8BDE809
:10287000044002F1300090E8F01F8CF309887047A3
:10288000041B002004ED00E01EF0040F0CBFEFF36A
:102890000880EFF30980816911F8021C0229FFD03A
:1028A00001B572460AF044FF01BD00BF40B20028E6
:1028B00007DB044A4109012300F01F00834042F86E
:1028C0002130704700E100E040B200280CDB4309F2
:1028D000064900F01F0020330122824041F82320E6
:1028E000BFF34F8FBFF36F8F704700BF00E100E071
:1028F000054B420900F01F0053F82220012303FA80
:1029000000F01040704700BF00E100E040B2002836
:10291000ACBF00F16040074B01F10101ACBF00F515
:10292000614000F00F004FEA4111B4BF195480F824
:102930000013704714ED00E0044B054A23F07F03B9
:102940009360BFF34F8FBFF36F8F7047001000008D
:1029500000ED00E008B5FFF7EFFF0B4AD2F8883032
:1029600023F47003C2F88830EFF3148323F00403D8
:1029700083F31488BFF36F8FFFF7BEFCFFF7C8FC2B
:102980000AF00BFF09F09CF800ED00E042F8203C53
:10299000009B42F81C3C0A49019B42F8183C029BF0
:1029A00042F8143C21F001014FF0807342F8043CDE
:1029B00042F8081C0023203A0265C0F888307047AE
:1029C0000FD40000094B0246986870B112F1160F3F
:1029D000806F05D0A0F14003934205D8824203D214
:1029E000814228BF0020704700207047041B002050
:1029F00008B50B4B0E461546986000F037F82C468C
:102A000086F309880020044B9847204600210022C5
:102A10000023024C2047000055D700000FD40000CF
:102A2000041B0020014B10221A61704700ED00E0EA
:102A300008B5EFF30583064A103B02EBC30152F8D9
:102A4000330049688847BDE80840FFF7B1BC00BFC4
:102A500064070100024B034A0348012100F074B8E7
:102A6000000004200000002068090100836F054A6F
:102A7000403B1360044B4021C2E901131046012181
:102A800000F06CB8F80C002000000B15084AC2F8E2
:102A900098000B6823F01F03034343F01003C2F8B0
:102AA0009C308B6843F00103C2F8A030704700BF30
:102AB00000ED00E02DE9FF41174E0D461F4604468C
:102AC0004FF00008A84523DA6068D8B13FB1411E35
:102AD00008421BD11F2819D92368194216D123682F
:102AE00001930AF066FEA36803430393D6F890307F
:102AF000C3F30723D0B2013B984207D801A9FFF7DF
:102B0000C5FF421C08F101080C34DBE76FF0150229
:102B1000104604B0BDE8F08100ED00E0044B052252
:102B2000C3F89420BFF34F8FBFF36F8F704700BF80
:102B300000ED00E0BFF35F8F024B0022C3F894204A
:102B4000704700BF00ED00E010B5034C0123227870
:102B5000FFF7B0FF207010BD3B1B002008B50B4AEB
:102B600000231278FFF7A6FF10F1160F07D0084ACE
:102B70000021D2F89030C3F30723984200DB08BD50
:102B8000C2F89800C2F8A0100130F2E73B1B002009
:102B900000ED00E0F0B5594B594CD3F89030256862
:102BA000C3F307239D4285B000F2A580FFF7C2FF63
:102BB00000200C26854217D1524C504F2570684694
:102BC000FFF74EFB00250646AE4214D123784B4951
:102BD0000020D1F89020C2F307229342C0F28580F2
:102BE000FFF79CFF002046E0616806FB0011FFF73D
:102BF0004DFF0130DEE7009800EB05114FEA051CA0
:102C0000CB686FF31303B3F5000F4CD00AD8B3F5BC
:102C1000001F32D0B3F5800F3AD0B3F5801F13D028
:102C20000135D1E7B3F1007F46D0B3F1805F4CD0DE
:102C3000B3F1807FF4D150F80C3088684A680AF00C
:102C4000B8FD40F0887009E050F80C3088684A6898
:102C50000AF0AFFD40F0885040F43020CDE9012368
:102C60000390D7F890302078C3F30723013B9842B4
:102C700034D96FF0150005B0F0BD50F80C308868FD
:102C80004A680AF096FD40F0885040F40020E5E7DD
:102C900050F80C3088684A680AF08BFD40F0C0603C
:102CA00040F40030DAE750F80C3088684A680AF0DF
:102CB00080FD40F08270D1E750F80C3088684A6897
:102CC0000AF077FD40F48020C8E750F80C3088689F
:102CD0004A680AF06EFD40F08850E1E701A9FFF76D
:102CE000D5FE2378013323709AE7C1F89830C1F8F4
:102CF000A00001336DE74FF0FF30BCE700ED00E0CE
:102D0000740901003B1B002070B54169867A0B4DA8
:102D1000044659B1437ADB0706D42C2303FB065340
:102D20005B6A1B689B689847002363612C202146DF
:102D300000FB0650BDE870400DF058B93C0500207E
:102D4000024B2C2202FB0030704700BF3C050020E4
:102D5000827A064B2C2101FB02339A6A1B7F1B33BC
:102D6000801A23F00303B0FBF3F070473C0500200A
:102D700038B5074B827A2C2404FB02335B6AD3E913
:102D800001240C601568FFF7E3FF04FB005038BD19
:102D90003C0500202DE9FF4D05466846039192460B
:102DA0009B460DF036FBDDE90067EFF31188202329
:102DB00083F31288BFF36F8F6B8B002B41D02A8B6C
:102DC0009A4225D900220023284609F0D7F8044664
:102DD000F0B188F31188BFF36F8F039B002B41D0B4
:102DE00032463B4668460DF039FBA27A264B2C2131
:102DF00001FB023320465B6A1B6803A91D68DDE9FD
:102E00000023A847606170BB2046FFF77DFF24E0E8
:102E1000698B4B1E6B8388F31188BFF36F8F2B7FF9
:102E20002A8BAC6A1B3323F00303521A02FB0344C0
:102E3000154B164AEB1A9B105343A3722B7FE37278
:102E4000CBE788F31188BFF36F8F52465B46284665
:102E500009F094F804460028BFD10024204604B0AD
:102E6000BDE8F08D6361012300252381039B63820C
:102E7000E27A6560294604F118000AF0EFFC636904
:102E80002582E360EAE700BF3C050020A38B2EBA51
:102E900070B50D4C2C2500B970BD037A002BFBD00A
:102EA000013BDBB246680372002BF5D1C36043607F
:102EB000837A05FB03431B6A13B198473046EAE760
:102EC000FFF722FFFAE700BF3C050020044A012378
:102ED000C2F840354FF080420020C2F87835704784
:102EE00000E0014048B1054B054A1B68B3FBF2F313
:102EF0005843044B43F00103184770476404002013
:102F000040420F00500901002DE9F04F0B7E33F0D5
:102F1000800591B004460E46174640F05C844A7E18
:102F200002F001019FB317F10C0F30D079B917F1FE
:102F3000710F07D13046FFF7ABFF0025284611B0CF
:102F4000BDE8F08F3046FFF7A3FF3D46F6E700F1FE
:102F5000280803BB338A072B48D83046FFF798FF71
:102F600040460AF0C2FE0346A069002B40F03084C0
:102F7000E38D002B00F02C8417F10C0118BF012108
:102F8000C9010BF059FF002305462363D6E704F17E
:102F900028080029DDD15207E2D5002BCAD03046DF
:102FA000FFF776FF236B012BC7D194F83D30002B40
:102FB000C3D094F82930052B05D1618DA069C9B221
:102FC0000AF0CFFE054694F82930032B0AD1638D11
:102FD000022B07D1A18DA0690022C1F307210AF0BD
:102FE0009DFE0546002384F83D30A7E70822F168DE
:102FF00040460AF028FC7268002AAED04046E18DB7
:103000000AF073FE10BB537E11B113F0020F01E002
:1030100013F0040FA1D0314600200AF085FC0646CB
:1030200000289DD00AF078FE0023036094F8283031
:1030300013F0600FC3F341111A460BD0032940F07F
:10304000A4810AF069FE6FF085033AE0002984D07C
:10305000537EDAE740460AF048FE94F8293000280B
:1030600040F03B81013B0A2BEBD801A151F823F042
:10307000BD310000433000003D320000433000000D
:103080009D3000004330000043300000433000001A
:1030900019310000433000007B310000618D7F2931
:1030A000CFD8A38D002BCCD1E38D002BC9D1D30673
:1030B000C7D194F83430022B05D10AF02DFE4FF021
:1030C000FF33036024E0A069036993F880301D0793
:1030D00013D5C9B20AF045FE054688B10AF01CFEB8
:1030E00003681BB10AF018FE0AF016FE002D00F06E
:1030F0004F833046FFF7CCFE20E7012384F83D30B4
:1031000094F83430012B05D1638D1BB984F8343029
:103110000025E3E70123F9E720460AF07BFC628DF6
:10312000FF2A01468DD8E38D002B8AD194F82830F0
:10313000D80686D194F83430002BBED02AB1D2B252
:1031400020460BF003F80028B7D0618D94F83C308E
:103150008B42DDD0C9B220460AF0FFFF05460028A9
:10316000BCD1628D824214BF0223012384F8343023
:10317000052120460BF0EBFACAE702F01F02012AF4
:103180007FF45FAFE38D002B7FF45BAF628DFF2A8E
:103190003FF657AFA18DFF293FF653AF94F8343077
:1031A000022B8AD1C9B2D2B220460BF0E2F9811CBF
:1031B000054693D10AF0B0FD0560A9E7E38D002B29
:1031C0007FF43FAF94F83430002B3FF476AF012BFF
:1031D000A18D02D100297FF470AF12F01F0219D027
:1031E000022A95D1638D002B92D15FFA81F90AF002
:1031F00093FD4946054620460BF08DFA28600AF0FB
:103200008BFD0368013313D00022494620460AF0A3
:1032100073FD7DE700297FF450AF638D012B7FF4B0
:1032200077AF94F8703061F3C30384F870306FE7C0
:103230000AF072FD0568002DE6D04FE7E38D002B04
:103240007FF4FFAE638DA18D022B5FFA81F911D15E
:1032500002F01F0259EA02027FF4F3AEA0690122D4
:10326000090A0AF05BFD00287FF4EBAE012384F825
:103270003D304DE794F8340000283FF41EAF01289C
:1032800002D100297FF419AF12F01F0214D0022AD4
:103290007FF43EAF002B7FF43BAF0AF03DFD494683
:1032A000054620460BF022FA28600AF035FD036837
:1032B00001330CD00122A8E700297FF4FEAE012BD8
:1032C0007FF426AF94F8703043F00803ADE70AF0BE
:1032D00023FD0568002DEDD000E70A2B3FF6B1AEC7
:1032E00001A151F823F000BF153300004330000066
:1032F0004330000043300000433000004330000002
:1033000087330000433000001D37000043300000C9
:103310004B370000E38D022B7FF493AE94F83430EA
:10332000002B3FF4CAAE012BA18D02D100297FF4FE
:10333000C4AE12F01F020ED0022A18D0002506F1EA
:103340000C000AF056FBE38D984216D20AF0E4FC1A
:103350006FF00B03B5E600297FF4AFAE94F8703040
:103360009D0805F00205C3F300131D43E7E7C9B24A
:1033700020460BF0DFF90546E1E7294606F10C008F
:103380000AF0F9FAC4E6D20605D0314620460AF022
:1033900004FD0546A2E6638D5FFA83F91B0A013B33
:1033A0000E2B3FF64EAE01A252F823F0E933000097
:1033B0002F340000DF3400004330000043300000B1
:1033C000173600001736000043300000433000007D
:1033D0004330000043300000433000004330000021
:1033E000433000001F36000006F10C094846E58D09
:1033F0000AF0FFFA854209D2E58D20460AF00AFB61
:1034000048B101287FF41DAEA16F05E048460AF0DF
:10341000F0FA0546F1E7616F002900F0B6810A78FD
:10342000AA4228BF2A4648460AF094FA70E6204687
:103430000AF0F0FA09F1010201468346D2B22046B1
:103440000AF05EFE814600283FF4FBAD06F10C0554
:10345000D0F804A028460AF0CCFA9AF8002090424E
:1034600003D228460AF0C5FA0246514628460AF019
:1034700071FAD9F80CA0BAF1000F26D0DAF80400DE
:1034800083681B6B13B9DAF800A0F4E75946984734
:103490000028F8D0A0F1040959F8043F002BF2D01D
:1034A0001B78002BEFD028460AF0A3FAD9F8003099
:1034B0001A78904203D228460AF09BFA82B2D9F8D1
:1034C000001028460AF046FAE6E7318AE38D994271
:1034D0007FF61EAEC91A28460AF057FA18E64A4681
:1034E000032120460AF05DFB814600283FF4A9AD88
:1034F0000AF0F5FBE58D99F81530D8B9B9F8143014
:10350000ADF82030D9F8103006F10C091B88ADF861
:10351000223048460AF06DFA854207D2E08D9DF8C8
:103520002020824228BF024608A97CE748460AF0CC
:1035300060FAF4E78DF80D3099F809304FF0000A81
:10354000032B8DF80CA055D199F80A309B0751D563
:1035500010210DEB01000BF0DBFF0028FFF671AD31
:1035600008A91028DFF878C204AA894628BF1020CD
:1035700082452ED3800002308DF80C0006F10C0A33
:1035800050460AF036FA9DF80C309D4288BF1D4621
:10359000A84203D250460AF02CFA0546022DAB464B
:1035A00028BF4FF0020B5A46A5EB0B0503A9504666
:1035B0000AF0D0F9CB466B0809EB5502934520D1B0
:1035C000E8077FF5A5AD19F8031050460AF0CBF9CE
:1035D0009EE512F8013B4FEA131E03F00F031CF89F
:1035E0000EE001F802EB1CF8033001F8013C0AF18F
:1035F000010ABDE799F814308DF80C30D9F8109015
:10360000BCE71BF8011B5046CDE900320AF0B3F9C4
:10361000DDE90032D2E720460AF0FCF911E5204648
:103620000AF0F8F938B1012861D00AF075FB6FF0A3
:103630008503036052E5636F002B00F0A6805B8872
:10364000B3F5007FF1D9674B089300238DF8243040
:10365000236D04F1500A9A455DD106F10C0B5846D2
:103660000AF0C7F9BDF82290E38D994528BF994625
:10367000484503D258460AF0BCF981469DF82020FF
:103680004A4528BF4A4608A958460AF063F9B9F1E5
:10369000050F94BFA9EB0909A9F10509B9F1000FBC
:1036A0003FF41CAD236D53453FF418AD002B3FF4A0
:1036B00015AD5A7D0F2A14D11A7D196900934A4518
:1036C00028BF4A4658460AF045F9009B1A7D4A45EC
:1036D00094BFA9EB0209A9EB0909B9F1000F3FF466
:1036E000FDAC626D93423FF4F9AC1B68DEE7A36F5B
:1036F000A2E75A7D0F2A0AD11A7DBDF822100A448A
:10370000ADF822209DF8242001328DF82420626D2E
:103710009A42A2D01B68002BEBD19EE794F834307C
:10372000002B3FF4CAACE38D012B7FF48AAC94F8F4
:103730003C9006F10C000AF05CF9E38D9842FFF42E
:1037400005AE494606F10C0040E702F01F02012ACF
:103750007FF4B3AC20460AF0E7FC00283FF4ADACA0
:10376000A38DFF2B3FF66DAC426812799A42FFF4AD
:1037700068ACDAB20F2A3FF664ACE28D012A7FF41E
:1037800060AC234493F83E90D3E76FF01505A5E4B1
:103790000AF0C2FA0368002B7FF4DFAB0123236336
:1037A00040460AF0A2FA60B9E38D53B131460020D9
:1037B0000AF0BAF8064600283FF4D2AB737E5907E8
:1037C000F4D53146204611B0BDE8F04F0AF04EBFA7
:1037D0008021FFF7D6BB6FF00405FFF7AFBB00BF3A
:1037E000CD130100050F05000B78062B10B414D182
:1037F0000369D3F89C20EFF31184202383F312880C
:10380000BFF36F8F4B6800201860506A58B9C2E947
:10381000083384F31188BFF36F8F044810BC002273
:1038200000230CF0FFBA03605362F2E7E8040020C3
:103830002DE9FF4120264FF0FF3360484FF0FF3263
:1038400001A908F071FA039B1B69D3F89C40236A15
:1038500093B1EFF3118286F31288BFF36F8F216A61
:1038600029B1606A0B682362814208BF636282F3F8
:103870001188BFF36F8FC9B99DF80430062BDAD0D9
:10388000072BD8D801A252F823F000BFDF38000080
:10389000D3380000FF380000E5380000233900006D
:1038A0001939000037380000B53900000B7ED1F817
:1038B0001E205D06204609D1FFF726FB02460028A0
:1038C000C5D0072120460AF042FFC0E70AF027FDD5
:1038D000F4E70022012120460AF039FFABE700227D
:1038E0001146F8E794F8703043F0040301A984F816
:1038F000703020460AF0ACFA00220321EBE794F87E
:10390000703023F0040301A984F8703020460AF0D7
:103910009FFA00220221DEE701A920460AF098FA68
:1039200089E794F87030A76923F0040384F87030B5
:10393000D7F808803B69BFF35B8FD3F8A030BFF3A3
:103940005B8F9A0733D5D8F83C3038469847D8F87B
:103950002430002138469847D8F84030054638468C
:103960009847CDB9294620460AF0F7FB054698B995
:10397000802120460AF0B7FEA0690BF004FB831EED
:103980005842584194F8703084F8345023F068035A
:1039900043EA401384F870300022042120460AF0E4
:1039A000D6FE002D3FF447AF2A46072193E74FF09C
:1039B000FF35F1E7029A06218DE700BFE8040020F9
:1039C00030B589B000220023CDE9062300246FF032
:1039D0000703CDE90334CDE901441A4B1A49009499
:1039E0004FF48062194808F079FD194917480CF026
:1039F000CFFB184B18498B4207D3184B18490020AE
:103A00008B4210D3002009B030BD03F11402BFF384
:103A10005B8F52E8000F42E80045002DF9D1BFF35B
:103A20005B8F1833E7E703F11402BFF35B8F52E8B3
:103A3000004F42E80005002DF9D1BFF35B8F18332A
:103A4000DEE700BF31380000801B00209806002010
:103A5000CD11010094060020940600209406002059
:103A60009406002038B502460949054680690BF0E6
:103A7000F0FA044648B985F83C0028460AF03FFAB7
:103A8000044610B1A8690BF013FB204638BD00BFF7
:103A9000E937000070B5064669B10024204670BDC4
:103AA00063683046196809F09BFE0028F6D0183488
:103AB000AC42F5D3F1E7014C014DF9E79406002043
:103AC0009406002070B50646EFF31181202383F39E
:103AD0001288BFF36F8F1B4D2A6881F31188BFF3E3
:103AE0006F8F526892F87020D20705D4BDE87040FD
:103AF0002122002308F0AABCEFF3118283F312887D
:103B0000BFF36F8F2C682CB1696823682B608C42DF
:103B100008BF6B6082F31188BFF36F8F44B1606898
:103B200004F10801C3699847074821460CF02AF9B7
:103B30002B6833B130460022BDE87040002308F006
:103B400051BC70BD040D0020B804002030B585B014
:103B5000CDE90012054600221448002303A908F00D
:103B600049F80246E0B9DDE90001039BC3E902011F
:103B70005D60EFF31180202383F31288BFF36F8F12
:103B8000039B1A600A4A516861B9C2E9003380F3A5
:103B90001188BFF36F8F07480022002308F022FC32
:103BA00005B030BD0B605360F1E700BFB8040020E2
:103BB000040D00203000002010B50AF0E5FD0CF0E7
:103BC000E1FA044608B908F041FEBFF35B8F064BEB
:103BD0001B68BFF35B8F0BB10A2098471CB9BDE887
:103BE000104008F047BE10BD0C0D002038B504464B
:103BF000084809F04AFE054650B1601EC0B21F28B1
:103C000096BF054B0021195C05F10C0009F0ABFED5
:103C1000284638BD94050020F11301000E38012814
:103C200010B50AD8094809F030FE044618B104213D
:103C30000C3009F098FE204610BD09B10448F2E7A7
:103C4000BDE810400220FFF7D1BF00BFC005002033
:103C50003C05002010B586B003AB00240093074953
:103C6000074805944FF0FF334FF48062CDE90344D9
:103C700008F04EFB204606B010BD00BFC01F00205C
:103C80002807002010B5012104460C3009F09DFEE4
:103C90002146034A0078BDE8104000230AF09FBD8A
:103CA0000C0A010010B5012104460C3009F08DFE0C
:103CB0002146034A0078BDE8104000230AF08FBD7A
:103CC0000C0A010010B5012104460C3009F07DFEFC
:103CD0002146034A0078BDE8104000230AF07FBD6A
:103CE000F40901002DE9F04782460F46914600286D
:103CF00072D0BFF35B8FDFF8E480002358E8004FF9
:103D000048E80032002AF9D1BFF35B8F002C63D062
:103D10002046FFF71DF8324D0C2303FB00502646CA
:103D20004388534511D0BFF35B8F58E8003F48E804
:103D30000062002AF9D1BFF35B8F002B4CD01E46E6
:103D40003046BDE8F047FFF7A3B8A1450AD02046AA
:103D500009F096FDB9F81020D9F80C1004F10C0008
:103D600009F0F8FD2046FEF7F3FF4FF00C0808FBC2
:103D7000005043689BB197B92046FEF7E9FF08FB66
:103D8000005001214268536803F01F008140106811
:103D90005B0900EB8300137AD3B10AF00DFD2046D6
:103DA000FEF7D6FF4FF00C0808FB00508368002B8D
:103DB000C6D02046FEF7CCFF08FB00F02F5420466B
:103DC000FEF7C6FF08FB0055A86808F007F9B7E73B
:103DD000C9430AF01AFDE2E7BDE8F0877801002048
:103DE000100D0020094BBFF35B8F1A68BFF35B8F88
:103DF00002F00B02BFF35B8F53E8001F43E8002083
:103E00000028F9D1BFF35B8F704700BF3C01002051
:103E10002DE9F8430C4608F019FDE2681378042BED
:103E20006FD1218A022908D82046FFF731F80024F3
:103E300008F020FD2046BDE8F88353783E2B08D1DA
:103E40000329F1D0D378012B01D00A2B4AD10326C4
:103E500005E0052BFBD00E3B012B43D8012604F1D6
:103E60000C0009F0C2FD0121074604F10C00B4F872
:103E7000108009F0A2FD022104F10C0009F0A5FD5B
:103E800003783E2B814607D1E3681B78012B01D0D4
:103E90000A2B06D1032514E0052BFBD00E3B012B8A
:103EA00029D91B4A1B491C4841F24B1309F0FDFA62
:103EB000002383F31188BFF36F8F0323184602DFBB
:103EC00002250323154A99F8000021460AF087FCD1
:103ED000AB0712D56369A4F8108013FA87F7E7607F
:103EE000012EA4D021460E4809F0D3FC0D490E48FE
:103EF0000CF014F99BE70125E3E72046FEF7C8FF25
:103F0000EEE72046FEF7C4FF6FF0150490E700BF10
:103F1000D2110100061201001F120100DC0901008C
:103F20007C010020E4020020D807002038B51C489E
:103F300009F0C4FC044688B30C3009F04EFD042897
:103F40001FD1022104F10C0009F03FFD03780E3B64
:103F5000DBB2012B05460ED8124A1349134840F62E
:103F6000AE4309F0A2FA002383F31188BFF36F8FE9
:103F70000323184602DF0E4A2878032321460AF05D
:103F80002EFC2046FEF784FF0A4BD3F81C312BB1E0
:103F9000BDE83840084909480CF0C0B838BD00BF3A
:103FA0007C010020D21101003C1201001F1201000F
:103FB000F409010060000020E4020020D80700207E
:103FC00010B5C1E900239DF808300B720C46FEF7CE
:103FD000BFFE034B0C2202FB00335C6010BD00BF30
:103FE000100D0020F8B502460B46104809F04DFCB4
:103FF0000446C0B104210C3009F0A2FC2046FEF7B3
:10400000A7FE0B4D0C2707FB0050002646802046DC
:10401000FEF79EFE07FB005086602046FEF798FEE6
:1040200007FB00556E602046F8BD00BF6805002004
:10403000100D0020034B0146D3F83C0182689268C2
:10404000104700BF60000020014804210AF0B4BB03
:104050003C010020014902480CF060B8D402002065
:104060002807002070B505460C4659B94FF0FF30BF
:104070004FF0FF31FFF7B6FF044618B96FF068053F
:10408000284670BD2046FEF763FE164B0C2202FB4D
:104090000033A61830465D8009F0A7FC03280BD931
:1040A0000321304609F078FC0580237C033B8370B4
:1040B0000121304609F078FC40F635439D4209D194
:1040C0002046FFF7B7FF05460028D9D02046FEF767
:1040D000DFFED5E7044821460BF07EFF0025FFF701
:1040E000B9FFCDE7100D0020840100202DE9F04339
:1040F000814687B017460C4669B94FF0FF304FF044
:10410000FF31FFF76FFF044658B96FF06805284686
:1041100007B0BDE8F083887AFEF712FE304B984274
:1041200058D10122002168460BF06DFF2046FEF7B2
:104130000FFEDFF8B0800C2303FB0080C0F808D02E
:10414000204609F0D1FB01464846FFF78BFF0546A4
:1041500018B12046FEF79CFED9E74FF4A0220023B9
:10416000684607F075FF064690B14FF4FD731E4A8E
:104170001E491F4809F099F91E483246494609F080
:1041800094F985F31188BFF36F8F0323184602DF7C
:104190002046FEF7DDFD0C23584318F80060AEB151
:1041A0002046093EFEF774FE092E0CD8DFE806F023
:1041B000050B0B08150B0B0B0B126FF06E05A6E72A
:1041C0006FF00C05A3E76FF00405A0E7002FC0D047
:1041D0003C609CE76FF0150599E76FF00B0596E7DB
:1041E00068050020100D0020D21101006A120100A4
:1041F0001F12010073120100F7B50022114640F6AC
:104200000340FFF773FF044600284BD1FFF7EAFD98
:10421000214601AA41F20300FFF768FF0446002887
:1042200040D1019D8448E9680822013109F00BFB67
:104230002846FEF72DFE214601AA41F20100FFF7B4
:1042400055FF044670BB01987C4DC3685A7885F8C9
:1042500078205A88A5F87A201A7985F87920B3F859
:104260000720A5F87C20B3F80530A5F87E30FEF7CE
:104270000FFE214601AA41F20200FFF737FF044674
:1042800080B9019EF1684022013105F1880009F0F2
:10429000DAFA3046FEF7FCFD95F88430580604D46F
:1042A0006FF01204204603B0F0BD214601AA42F28D
:1042B0000300FFF71BFF04460028F3D1019EF168BD
:1042C0000822013105F1E00009F0BDFA3046FEF7A1
:1042D000DFFD1F23A5F8F03095F88430990619D436
:1042E0004FF0FF304FF0FF31FFF77CFE064600280D
:1042F00000F09E8002210C3009F026FB012344705F
:1043000003702246314640F66D40FFF7EFFE04464B
:104310000028C7D195F8A4301A0712D501AA0021A8
:1043200042F21C00FFF7E2FE04460028BAD10198D1
:10433000C368D3F80120D3F80530C5E93A23FEF766
:10434000A7FD4FF0FF304FF0FF31FFF74BFE044663
:1043500000286DD008210C3009F0F6FA0226002260
:10436000067042708270C270027142718271C271B5
:10437000214642F20100FFF7B9FE0446002891D120
:104380004FF0FF304FF0FF31FFF72CFE07460028BB
:104390004ED008210C3009F0D7FA80234370202337
:1043A00004708470047144718471C670C3712246B4
:1043B000394640F60140FFF799FE044600287FF495
:1043C00071AF014601AA4FF60140FFF78FFE044688
:1043D00048BB0198FEF75CFD214601AA4FF602405A
:1043E000FFF784FE0446F0B9019F1548F96832468C
:1043F000013109F028FA3846FEF74AFD95F8C93030
:104400005B0710D501AA21464FF60340FFF76EFE69
:1044100048B9019C0B48E1680122114409F013FAE4
:104420002046FEF735FD03B0BDE8F04000F028BBA4
:104430006FF0680436E700BFE00000206000002055
:10444000290100202801002073B5264D0646D5F825
:104450003C010BF005FC00283DD06FF0020105F196
:10446000DC000AF0D2F901210AF0A6F910EA0104F1
:1044700034D11D4B1E600A4605F580700BF0C3FD5C
:1044800005F592700BF06AFD18480BF057FE1849BD
:10449000164800946FF007034FF4806207F038FF6E
:1044A000144912480BF074FED5F83C011249836898
:1044B0001B689847044630B946B9FFF79DFE04468D
:1044C00008B9FFF7C1FD204602B070BD05F1CC0070
:1044D00007F018FFF7E76FF01204F4E76FF07704C6
:1044E000F1E700BF600000201C0D0020D80700206D
:1044F00000240020B8120100113E000010B5FFF7A3
:104500007BFE044608B9FFF79FFD044B1B681BB1F7
:104510002046BDE81040184710BD00BF1C0D00200C
:1045200038B5032104460C3009F04FFAB0F80130D9
:1045300040F6354293420ED0E1680578097822466C
:104540001846FFF7CFFB35B1034807F047FDBDE83C
:104550003840FFF77FBD38BD6001002038B508F056
:1045600075F9274DD5F82431002B44D000220023C3
:1045700005F5807007F06CFD00283CD10022002377
:1045800005F5927007F0FAFC044668B91D4A1E4909
:104590001E4840F6BE4308F088FF84F31188BFF33D
:1045A0006F8F0323184602DFD5F8180120B1FEF7FC
:1045B0006FFC0023C5F81831204609F095F9C5F8BD
:1045C00018012046FFF736FD98B1114807F006FDA7
:1045D0002046FEF7BDFB0F4B0C2202FB00301F21D3
:1045E00040882246FFF77EFB2046FEF751FCFFF78E
:1045F00031FDFFF72FFDBDE8384008F03BB900BFA3
:1046000060000020D2110100C11201001F12010040
:1046100060010020100D002038B5042104460C3044
:1046200009F0D3F94578017840882246FFF75AFB14
:1046300035B1044807F0D2FCBDE83840FFF70ABDA9
:1046400038BD00BF6001002070B54FF0FF320D464D
:104650004FF0FF3300210646FFF7E0FA044660B949
:104660000A4A0B490B481A2308F01FFF84F31188EC
:10467000BFF36F8F0323184602DF022104F10C0001
:1046800009F062F906704570204670BDC512010040
:10469000C11201001F120100F8B50A4E074600259D
:1046A000B37BECB2A34202D86FF0010009E0C4EB87
:1046B000C401314438460AF0D8F801350028EFD05B
:1046C0002046F8BD6000002038B515490622054691
:1046D00009F092F80446E8B14FF0FF304FF0FF3197
:1046E000FFF780FC0446B8B1062229460C3009F0D9
:1046F00031F92146002242F20500FFF7F7FC04469B
:1047000040B906220648294609F09DF8054B0122CA
:1047100083F87020204638BD6FF06804FAE700BFC8
:10472000D10000206000002037B504460D4679B165
:10473000144928460AF099F850B91348C4EBC40448
:1047400007222946204409F07EF8002003B030BD3E
:1047500068460AF00BF80028F8D16846FFF79CFF7E
:104760000028F5DA084BC4EBC4041C440722694650
:10477000204609F068F8002DE7D007222146284698
:10478000E1E700BFDE1301006000002070B50446C1
:1047900011B16FF0150070BD30B91E4DAB7B022B0F
:1047A00015D16FF00B00F6E71B490AF05EF8002800
:1047B000F3D12046FFF770FF002827DA2378012B7A
:1047C000E7D1A37903F0C003C02BE6D0E1E7BFF344
:1047D0005B8FD5F8DC30BFF35B8FDB070BD5AE7B8F
:1047E0002146731C3046AB73FFF79EFF60B1AB7B75
:1047F000013BAB73CFE7002CCBD0074920460AF032
:1048000034F80028EBD0C4E73046C4E76FF07700F7
:10481000C1E700BF60000020DE13010073B505464C
:104820000C46164629B9D6B16FF01503184602B0EA
:1048300070BD194920460AF018F80028F3D12378F2
:10484000012BF1D1A37903F0C003C02BECD120469A
:10485000FFF722FF0028E6DB6FF07703E6E7002D85
:10486000E2D00E4B9B7BAB42DED90D488DF8045055
:1048700001A98DF8056000F089F99DF8053013B1A4
:104880006FF00F03D2E721462846FFF74DFF0028BF
:1048900014BF03462B46C9E7DE1301006000002069
:1048A0007BE8000073B5054690B101AA002141F2F2
:1048B0000900FFF71BFC064650B9019B0F49DC6855
:1048C0000622601C08F098FF28B90198FEF7E0FA6C
:1048D000002002B070BD0A490622601C08F08CFF5F
:1048E0000028F2D00622611C681C08F0ACFF019879
:1048F0002E70FEF7CDFA0120EBE700BFEB130100AD
:10490000E513010007B56846FFF7CCFF044B987329
:1049100018B169460020FFF707FF03B000BD00BFD4
:10492000600000202DE9F041274FBC7B8EB0002CA9
:1049300043D197F8CA30DB0715D501AA21464FF6B7
:104940000940FFF7D3FB054668B9019BDE68747820
:10495000022C28BF02240DF10C080236A54210DB00
:104960000198FEF795FABC73002503AE4FF01608C8
:10497000BB7BECB2A3420ED8FBB100200EB0BDE869
:10498000F08131464046162208F05DFF013508F1FE
:1049900016081636E2E708FB046106220DF1050051
:1049A00008F051FF012301A920468DF80430FFF7DC
:1049B000BBFE0028E2D10135DAE7002108460EB03F
:1049C000BDE8F041FFF7E2BE600000202DE9F041B4
:1049D00084460E4690461D46002848D0002B46D0FF
:1049E000310307D5720742D409F05DFF10BB0123E4
:1049F0002B701FE0B30704781ED020492AB1B706F8
:104A000003D591F8E030580634D5C4EBC4040F5DEB
:104A1000012F07D101342144604609F03CFF48B919
:104A20002F7001E0002FFBD0B8F1000F01D0B206CB
:104A300015D40020BDE8F081730715D50F49C4EBEC
:104A4000C4040F5D012F07D10134214409F023FF75
:104A50000028EFD12F70EAE7002FE8D1FAE72B7892
:104A600043F002032B70E4E709F01DFFBFE76FF08E
:104A70001500DFE76FF08500DCE700BF6000002075
:104A800010B50A4CA37B0BB1002010BDFFF73AFF15
:104A90000028FAD1A37B002BF6D1FFF743FF0028B3
:104AA000F3D1601CBDE81040FFF70EBE600000208F
:104AB00038B543680446580501D5002038BD226941
:104AC0000AB19907F9D0194D2078AB7B8342F4D90C
:104AD000C0EBC00016490722284408F08DFE0028CC
:104AE000EBD06068820706D195F87830082B02D8A1
:104AF000A3689F2BE1D910F0300F23690AD0002B57
:104B0000DBD0C30608D400F46030B0F5603018BFC5
:104B10000120D3E7002BF6D1D4E902239A42CCD866
:104B20001F2ACAD9B3F5804FEDD9C6E7600000202F
:104B3000DE130100F7B5CDE90001694642F2080035
:104B40009DF8207016461D4609F0DBFE044668B944
:104B50007FB9BFF35B8F0C4B53E8001F41F004019A
:104B600043E80012002AF7D1BFF35B8F204603B061
:104B7000F0BD694642F20900CDE9006509F0C1FEC9
:104B80000028E6D00446F1E79000002003460148E3
:104B9000184700BF800000202DE9F04F784C0769CE
:104BA00087B00546884692469B46BFF35B8F2368D5
:104BB000BFF35B8F5A0740F1BE80FFF779FF68B9FA
:104BC0006FF01504002308F1010108F104009A4573
:104BD00040F0BA80204607B0BDE8F08F284609F0C3
:104BE00079FE06460028EBD0BFF35B8F54F8AC3C4F
:104BF000BFF35B8FC3F30029DB0500F19F800F2219
:104C0000494602A808F02AFEAB686868ADF808308B
:104C1000EB68ADF80A3009F061FE8DF816908DF85A
:104C20001500BFF35B8F54E8003F23F4807344E822
:104C30000032002AF7D1BFF35B8FA4F1DC092B7897
:104C400089F8203089F877303A1EA4F1BC006968F1
:104C50000DF10D0318BF0122FFF7B8FE044600282E
:104C6000B0D10722BFB1296909F1290008F0EBFD95
:104C70006B68980711D0BFB113F0100F0CBF012360
:104C8000042329698DF80C3007220DF10E0008F07D
:104C9000DAFD00260BE03B49E6E7990502D4BBF1BB
:104CA000000F39D0022300E03B468DF80C304FF066
:104CB000FF304FF0FF31FFF795F90446002840D050
:104CC0000F2202A90C3008F045FE2146002242F2D4
:104CD0000600FFF70BFA044600287FF473AFFFB11C
:104CE0002948012109F082FE044600287FF46AAFBA
:104CF0006A68264812F0030218BF0122092109F050
:104D00005AFE32460A2109F056FE2A790C21C2F3D6
:104D1000800209F050FE55E703238DF80C30B8E708
:104D2000109B00965A4651464046FFF703FF044643
:104D30000028D5D046E76FF00A0443E76FF0770408
:104D400040E76FF068043DE718F83320012A09D1E5
:104D500011F83320012A05D150F8332012B112780E
:104D6000D20701D4013332E709490A480BF0ECF9C4
:104D70004FF470220023074807F068FB2AE700BFC2
:104D80003C010020DE130100800000209000002084
:104D90003FEA00009800002010B50A4C204609F0B8
:104DA0004BFEBFF35B8F2369BFF35B8FC3F3002020
:104DB000DB0505D520460021BDE8104009F016BEF0
:104DC00010BD00BF800000202DE9F0411546C21D36
:104DD00022F003026F1E8846BFB282B004461860FC
:104DE0000021158008FB0700042208F037FDA7B159
:104DF000023DADB205FB088305FB08F5EE1A1C4425
:104E000000250422A0190DEB02010135019408F0E0
:104E10001AFDBD42A4EB0804F3D102B0BDE8F08155
:104E20000168C1B130B5CB1D85B023F00303054641
:104E3000042203A81C88019108F005FD039B019939
:104E40002BB1073323F00303621E1A80039B2B60F0
:104E5000084605B030BD0846704700BF30B50B6846
:104E600083B004468BB1073323F003031D8801355B
:104E700004222046019108F0E6FCE31D019923F08D
:104E800003031D800C6003B030BD0125F0E700BFB7
:104E90006AB153426FEA034311446FEA1343013886
:104EA000CA1811F8013D00F8013F9142F9D170474D
:104EB000014402E010F8013B1BB98842FAD10020FE
:104EC00070470120704700BF10600860704700BF46
:104ED000136818601368596010607047884203D0E7
:104EE0001AB1436813607047002070470B68834213
:104EF00009D02AB1586810601A680A6018467047CD
:104F0000002BF9D1FAE70023F8E700BF2DE9F843B9
:104F10000E4EDFF83C904FF090080C2706F120046D
:104F200009EB08052A1D29462046083CFFF7CCFF5F
:104F3000B442A5F10C05F5D1043F3B1DA8F13008A2
:104F4000A4F12006EAD1BDE8F88300BF7C0D002063
:104F5000C80D002070B5054682B00C461AB318780B
:104F60005978401A10F0030030D12B4A4FEA450C13
:104F70004FEA440EAC44A6444FEA8C0C0CEB0E1CDA
:104F800001310CF1040C1970586862441946FFF79E
:104F90009FFF224B0122214628461A5504F028F88B
:104FA000002002B070BD019304F00CF8019B0028B2
:104FB000D5D021462846019303F0F6FF019B59788E
:104FC00048B91878401A10F00300CED00128E8D074
:104FD00001311970DDE704EB440005EB450C0E4A86
:104FE000000100EB8C0010444FEA450C867AC07A31
:104FF00086424FEA440E05D01878401A10F003009C
:10500000E4D1B7E71A78521A920701D00231197029
:10501000D3E902029047C3E7A40D0020200D002031
:105020002DE9F04FDFF8649119F8003089B0002BBA
:105030005CD0DFF85CA1C0EB00134FF0000B00EB7D
:1050400040079B000324CDE904BB09F800B00AEB3C
:105050000717039302948346002307933B46B96ADC
:1050600053F8240F019307AAFFF738FF054607AA54
:10507000C5B1079E96F800807178A8EB010808F08A
:105080000308B8F1010F34D03478611A01F003013C
:1050900001293CD1D7E90901FFF720FF054607AAFE
:1050A000002DE6D197F82E3097F82F209A4203D0A2
:1050B00087F82F300123049397F82C3097F82D2090
:1050C0009A4203D087F82D3001230593029B5D1E81
:1050D000EBB2FF2B0293A7F10C07BDD10499D84680
:1050E000DDF814B011B1BBF1000F44D009B0BDE838
:1050F000F08F01397170079AD2E902018847079E43
:1051000034787278A21A02F00302012A21D0B86A18
:1051100001990022FFF7EAFE7560717874703278A9
:10512000521A02F00302012A0AD0D7E9090107AA9C
:10513000FFF7D4FEB8F1010F054698D104460EE002
:10514000039B71701A1D314628465244FFF7C0FE7A
:10515000EBE7D7E9090107AAFFF7C0FE0446029B67
:105160008BB101235946584609F80B3003F040FF34
:1051700009B0BDE8F08F5A464146404609B0BDE847
:10518000F04F03F005BF002C8CD0EAE7200D002083
:10519000A40D002081B1013900F1FF3C50FA81F1EA
:1051A00000201CF8013F23B15A1E01301340C0B249
:1051B000FAD18C45F5D170470846704770B5064660
:1051C000007EFF282ED0D6F800C00D4602464FF0D4
:1051D000000E07E09C681CF80130FF2B1046A64427
:1051E00020D01A4602EB420395424FEA03110CEB22
:1051F0000313EFD1A84202D11CF8012032761CF82B
:10520000011000EB40000201FF2998680CF8021021
:1052100006D001EB41010CEB01118B6803448B605C
:10522000704470BD002070BD00B5A2EB010E1EF4ED
:10523000000F8368D0F814C00AD12EF07F4E73445B
:1052400063450DD8ACEB030200238360426100BDCF
:10525000891A21F07F418B4208D95B1A6345F1D945
:10526000A3EB0C0300228360426100BD8C44ACEBD5
:105270000302E9E72DE9F04104461846284B2C25A6
:1052800005FB043382B05C68BDF82C7014F8316003
:1052900004EBC10E9EF803409EF8015004F1010C8E
:1052A0005FFA8CFC664598BF4FF0000C654532D024
:1052B00005460846DEF80410DEF8048004EB4404DA
:1052C000260101EB0414042108F806106270089A04
:1052D000A260099AE2600A9A22610C9AA261119A6C
:1052E00062620D9AE2610E9A22620F9AA262109A8D
:1052F000E26202226560A782A2708EF803C0D3E941
:10530000082501939047019B04210022A847A0781B
:1053100002B0BDE8F081012002B0BDE8F08100BF1D
:10532000640E0020437A002B00F0FC802DE9F04F42
:10533000013B4768026887B0DBB207EBC3038A46CC
:105340000090019202930597029B5A6893F801809E
:105350000492CDF80C80BAF1FF0F57D00AEB4A0443
:10536000019B2701D34613F807A003EB0414002583
:10537000009BFF2222701E681B7E934206EB0709EA
:1053800000F0C880D9F8081017460CE0091A05D1BA
:10539000B9F81E80BEF81EE0F0457CD8B25CFF2A4A
:1053A0001F4668D0134603EB430206EB021E4FEA8A
:1053B000430CDEF8080088424FEA0212E6D9FF2FBC
:1053C000C9F8081089F800305FD1009A82F818B047
:1053D000634406EB03139A68521A9A60A378013368
:1053E0006370002DB7D0AB6A4FF000022A70AA702C
:1053F00013B1E96A002098476368002BABD1AB6A10
:105400002362EB6A6362BAF1FF0FA7D1029BDDE969
:1054100003869A7808EB480308F1010042454FEAF9
:10542000031106EB03155FFA80F8029B6AD0187827
:10543000735C404508BF4FF00008042BEAD195F893
:1054400001B0019A0BEB4B0302EB0314012094F81B
:1054500001C0A27894454FEA03171ED04FF0000315
:1054600073544FF00103AB70AB6A0BB1E96A984714
:10547000029B9A78CEE79C444FEA0C1CC9F80810AE
:1054800089F8002006F80CB0A8E707EB47073F01B2
:1054900006F807B09CE7014691E7009AAB8A51698C
:1054A000CDF80C804FF6FE72934207D04FF6FF7294
:1054B0009B1AB3FA83F35B0984F82C306B6AA362FE
:1054C000EB6863602B69236200226262AB8A4FF64D
:1054D000FD70834288BF1346A383AB69A361EB6968
:1054E000E3602B6A2361AB68A36062616A6820464F
:1054F000FFF79AFE4FF00003E383E37843F00103E4
:10550000E37035E75A70059A934208D0029B083B36
:10551000029319E7F355009B83F818B05EE707B0D4
:10552000BDE8F08F704700BF2DE9F04F447E0123A6
:105530008FB08376002C40F0BB80037EFF2B00F001
:10554000B680814603F0F8F999F81880B8F1FF0F9A
:1055500000F0BD81D9F81430D9F800600494C01A65
:10556000D9F81C3020F07F4B5B4594BF002301230A
:105570000393A24608EB480806EB08144FEA081804
:10558000A3685B4571D8A27816F80880ABEB030BD3
:105590009A4463789B1ADDB2012D63D1A06AA36996
:1055A0000293002800F019810168002900F083802F
:1055B000002B00F02A81039B002B00F04A81037A24
:1055C0005A0700F03B81037A23F007030372E78B4D
:1055D000E27822F001027B1CE27094F82C209BB24E
:1055E000E383002A00F0E080A28B9A4280F0DC8006
:1055F000A06A002800F06581037A03F00703012BFD
:1056000000F0D280002741684760A36A1A7A67F3E6
:1056100002021A72A278E768013AA27017B36369AE
:10562000D9F8142094F803C0AAEB0303134423F021
:105630007F40626A23690CF0010C002D40F0DF808E
:10564000B4F81EE0CDE900C37346B847DDE9022394
:10565000AA4218BF43F001030393E378E58365F39F
:105660000003E370B8F1FF0F84D1049C99F80B306C
:1056700099F80A209A4208D10132D2B2022A1ABFFE
:1056800014462346002389F80B4009EB83030022CC
:10569000C3F80CA0D9F8244089F81A204B460122FF
:1056A00004210320A4460FB0BDE8F04F6047847684
:1056B0000FB0BDE8F08F029B002B00F08C80039BA5
:1056C000002B80D1D9F81C309A45FFF47CAFB8F19B
:1056D000FF0F7DD0029BE78B09939C46A38B6168EB
:1056E000CDF818B0BB429ABFFB1A9BB23B4603FBF6
:1056F0000113CDE907A805934FF0000E43460B9226
:10570000DDF824800C95CDF824C0A3468A46844653
:105710000D97CDF8289003EB430306EB03121B0112
:1057200091688E44F04548D3906A946900283FD030
:10573000006800283CD0D58B978B5068AF4240F270
:105740009380002840F09780BCF1000F32D0814652
:10575000DCF8000028B1029919B97444A04280F025
:10576000BF80AF4226D8D0789BF8032000F0010418
:1057700002F00105A54205D34240D1071AD4B9F180
:10578000000F17D060465C46DDF820800C9DDDF8E8
:1057900024C00D9FDDF82890DDE906BA002840F00E
:1057A0009880CDF808C013E7A378013BA37059E7B0
:1057B000002CC0D1F35CFF2BADD16046DDE9088C35
:1057C0005C46DDE906BA0B9ADDF82890CDF808C0F2
:1057D000002800F09080002514E7029B5BB3039B38
:1057E000002B7FF4F4AED9F81C309A45FFF4EFAEED
:1057F000B8F1FF0F7FF46EAF03990D460BE7CDE9CB
:1058000000C34FF6FF73B8472CE7039B63B9D9F881
:105810001C309A4508D3B8F1FF0F54D04FF0040C58
:10582000E78BCDF824C059E704230293037A5A0783
:105830007FF4C9AE02E0029D0021ECE6A18BE28B71
:1058400091423FF6C0AE012262F302030372E78B7E
:10585000BEE6D9F81C309A45FFF4B1AEB8F1FF0F9F
:105860007FF438AF039DCDE668B9BCF1000F7FF43B
:105870006EAFE14677E7BAF1000F20D1BCF1000F1F
:1058800098D0D14664E7BAF1000F12D0A5EB070912
:105890001FFA89F9411A00FB0911059888422CBFAB
:1058A0004FF000094FF00109BCF1000F7FF450AF39
:1058B00057E7D146BCF1000F7FF44AAF51E7A94644
:1058C000E8E7A278B8E70423039D02939AE6A2468C
:1058D000CCE60168CDF808C000293FF474AE6EE64E
:1058E0005C460146DDE906BA6046DDF820800C9D85
:1058F000DDE909C9EEE7054601468CE6837E002B0B
:1059000040F030832DE9F04F477E8DB0002F76D1E7
:10591000837AC27A012141769A424169079100F067
:1059200022830133DBB2022B12BF1A463A463B46B2
:1059300000EB82028372D268079B0592134423F026
:105940007F4343610125037E0893834602F0F4FF01
:105950009BF809300490002B00F02484DBF80460ED
:105960000696013BDBB206EBC30ACDE90A75DBF80C
:1059700000300193FF230393D946DAF804704FF007
:10598000000B9AF803109AF8025005EB45046B1CC3
:10599000A9424FEA0418DBB207EB041460D09AF86E
:1059A00000209A4208BF00238AF8023017F8082026
:1059B000042A48D9082A3AD86178019801EB4103B2
:1059C00000EB03161B01B078029373781B1A13F0D7
:1059D000FF031ED1062A2AD199F81B308B424FD0E3
:1059E00007F808B0A36A84F802B0002BC9D0E16AB6
:1059F000002098479AF803109AF80250C5E7446AC5
:105A00000421034601220420A4460DB0BDE8F04F56
:105A10006047052A2BD16268BAB9A268AAB9E268C0
:105A20009AB922698AB9A28A7AB9A27D6AB907F8B5
:105A300008B04FF00103A370A36A002BA1D0E16A64
:105A4000012098479DE71D469FE7012B28D00421A0
:105A5000D9F824404B4601220846A0478AF8025054
:105A6000069B534500F0DE80AAF1080A85E7012B6A
:105A700000F0A180062AEAD199F81B308B42AFD101
:105A80006168D9F814208B1A1E0240F1BA80059B78
:105A9000521A22F07F4293428CBF9B1A0023B4E03B
:105AA0004846FFF78BFBB060D9F814E0049B059AD9
:105AB000A3EB0E0323F07F431344984240F2AC80E3
:105AC000C21A7368002B43D0A38A002B40D0013B3D
:105AD00099B2A1827568F38BAA4218D81BE0716A4B
:105AE000DFF8A4C283B2A94808186045A2EB0502FA
:105AF00006D901F1E87101F5D43101F5A571013A3A
:105B0000306AF383091A71629542A18A03D28B42EB
:105B100003F1FF30E3D8994219D9306A0997716AC5
:105B2000DFF868C2984F01448C440133BC459BB2F6
:105B30002A4406D8A1F1E871A1F5D431A1F5A571E7
:105B400001327162F383A18A8B42E8D3099FB1834A
:105B50006368B16A1344B360A268736913447361E4
:105B600029B10B681BB1D4E901329B1A4B60049A2E
:105B700071463046FFF758FBE268B3691344B361DE
:105B8000226993428CBF9B1A0023B361A37D1BB192
:105B9000F27863F30002F270E37D13B1013B86F803
:105BA0002C30DDE90121039B535473786278039212
:105BB0000133737014E7062A3FF40EAF4846FFF72F
:105BC000FDFAB378B060737099F81B2063789A423D
:105BD0007FF406AF17F80830062B3FF451AFFF23D0
:105BE00089F81B3017F80830062B3FF449AF082B13
:105BF0003FF446AF0499D9F814208B1A1E023FF5E2
:105C000046AF059A23F07F431344D9F81C209A42EB
:105C100088BFC9F81C30E3E671690B441B1A736135
:105C200000224EE7DDE90A75CB469BF81860002D8F
:105C300000F01A81089BF51A18BF0125FF2E08BF36
:105C40002C4668D0049B079ADBF800A0DDF814907E
:105C500004974FF000089B1ACDF80480059523F0B7
:105C60007F4806EB46030AEB03141B01A26802936C
:105C70004A4500F26982019BA178E08B13440193AD
:105C800063785B1ADBF81C108A4234BF891A002142
:105C9000A9EB0209A8EB020824BF4FF0FF328BF8F2
:105CA0001B20CBF81C10A16AA569DBB2002900F00B
:105CB000CE800A68002A00F0B680002D40F0B68041
:105CC000022B00F03C820022A260029A1AF8022005
:105CD0008BF818206168A26A002976D122B1127A65
:105CE00002F00702012A53D03BB1012B00D020B1B2
:105CF000236A13B1616A01209847A37863709BF807
:105D00001860FF2EADD1DDE90475089BFF2B0CBF99
:105D10002C4645F0010403995846FFF703FBCDE9F3
:105D20000247DBF80090CDF804B04FF0000C019B67
:105D3000187EFF2800F0398204464FF0FF0800E08B
:105D40001C4604EB440309EB03151B01A96A8E46AC
:105D500029B10A7A02F00702012A00F00A8119F833
:105D60000330FF2BA046EBD1DDE90247DDF804B09C
:105D7000BCF1000F40F09380089B834240F08F807D
:105D8000002C7CD08FE000BF592B177F5A2B17FFB8
:105D9000A378C4F808906370079B019ADBF814108D
:105DA0009A1822F07F422046FFF73EFADDE90223EF
:105DB0000AF80230637803960133DBB263709BF814
:105DC0001860FF2E7FF44DAF9DE722B1137A03F0E8
:105DD0000703012BDCD0B4F81EE0BEF1000F3FD169
:105DE000B4F81CE07046D4E908730022BB4DDFF81C
:105DF000F0C23B445D19654500F1FF300A4406D806
:105E0000A3F1E873A3F5D433A3F5A5730132451CC0
:105E1000ECD194F82C006362002800F08380A2602B
:105E2000A4F81EE0B8E7002D3FF44DAF022B7FF43D
:105E30004AAF00287FF447AF0A7A02F00702012A2E
:105E40003FF441AFCBF81C508BF81B603BE7002DB3
:105E50003FF439AF022B7FF436AF0028F2D032E79F
:105E6000A37863700020BEE758460399FFF75AFAFB
:105E70009BF81800089B83420ED19E420CD1002350
:105E80008BF819309BF81A30002B48D0DBF82440EF
:105E90005B4601220321B6E5FF2800F09181089BB3
:105EA000FF2B00F06A81DBF8003000EB400003EBD1
:105EB0000013D3F80880B8F1000F57D002F03CFD72
:105EC0000A260446DBF81430E21A22F07F4290459D
:105ED00002F103011BD941452CBF5B18434423F059
:105EE0007F452846DBF82830984702F025FD031B44
:105EF0002D1B23F07F43033325F07F45AB4207D9A9
:105F0000013E01D00446DDE700DE0446DAE7012762
:105F100000238BF819309BF81A303B43B6D10DB0F3
:105F2000BDE8F08F90457FF67AAF84466C4D6B48A4
:105F3000CDF818903B4403EB0009A9450A440CF145
:105F4000010C06D8A3F1E873A3F5D4330132A3F50D
:105F5000A5739045EED8F444DDF8189063621FFAFB
:105F60008CFE5CE770473D460597ECE48BF81980A2
:105F70008CE7AA68002A40F03B81D5F818B0BBF145
:105F8000000F06D10A68002A00F03E818E464FF0CD
:105F9000040BDEE9001A8A4580F0E48019F803203A
:105FA000FF2A00F0DF80A1EB0A0C01990794C96970
:105FB000ACEB0B000E1D0021CDE905A804909A461C
:105FC0000F460846344613460BEB0708C44540D33A
:105FD00003EB430309EB03121B01966830440428CA
:105FE00040F28080061F3E44664528BF66460BEBA4
:105FF00004018C450ED3B0450CD8A969002900F0E6
:106000008C809EF80810090700F18780B6EB0B0121
:1060100040F0BE80916A21B1097A01F0070101299F
:1060200071D0916900296ED05268002A6BD0AA699C
:1060300007440431CC19002A63D09EF808201207C7
:10604000ACEB0B0100F1AB8019F803300020FF2B03
:10605000BAD15346DDE90684DDF814A08A44CEF8AF
:1060600004A019F803B0BBF1FF0F5A4618BF4FF058
:10607000FF0C01D1CEE0024602EB420009EB001713
:106080004FEA420ABE688E424FEA001080F0C48098
:1060900019F80000FF289446A1EB0601EBD1A96096
:1060A000B8F1FF0F00F0A08008EB4801090109F8E2
:1060B00001B05244120119F8021009F8031009F84E
:1060C0000240EB8B013BEB839EF80830022262F327
:1060D00002038EF808304FF0010C28E65A2B17FF08
:1060E000592B177FAE6996B19EF8086016F0080626
:1060F0003FF47DAF9469049A074404343C449442CD
:10610000A2D82146A0E719F8033000219FE7916942
:106110000744043139440C4696E7002C3FF47AAF2B
:10612000A6EB0B06A642FFF475AF5346DDF814A0AC
:10613000DDF8188022469244079C11468FE700281C
:106140007FF4C1AD042577E6A2EB0902A260DDE988
:1061500004759BF81830089A93420CBF2C4645F002
:106160000104D8E5CEF804A019F80330FF2B08BFCE
:1061700000214FD00023AB60A3E702F0DDFB044613
:1061800002F0B6FB40B99BF81800CBF814408AE641
:10619000A142FFF43FAF5CE79BF8180083E60A4694
:1061A0000021ACE7FF2303933FE5029C9B46BCF133
:1061B000000F05D1089BFF2B02D1002C3FF45FAEEE
:1061C00002F0A6FB044600287FF459AECBF81C0071
:1061D00002F0B2FB8BF81940CBF814009BF81A3090
:1061E000002B3FF49CAE51E6019981F818B060E7AE
:1061F00000DEA96AD5F818B08E46BBF1000F7FF417
:10620000C8AE00297FF4BEAE00DE4FF0040BD5F817
:1062100028E0BEE6A96054E7761ABCF1FF0FBE6025
:10622000A9603FF44EAF19F803B062464FEA4C0A3A
:1062300036E700BF38B5DDF810C09DF814408E4633
:106240000699D0B9164D85F808E02A606B72C5F83A
:1062500004C08BB15A1ED2B20CEBC202ACF1080CD6
:10626000516012F8083903EB43009445A4EB030393
:1062700001EB0011DCB2F3D10CB1012038BD079A5B
:106280002A62089A6A62FF23099A2B76AA6202F0B0
:1062900053FBFF2368616C81EB76EC61204638BDCF
:1062A000640E002040B9064B1A7EFF2A01D11872F5
:1062B00070476FF00F0070476FF01500704700BF18
:1062C000640E002000B5084B2C2202FB0033D3F8EB
:1062D00024E0BEF1000F06D0F44601225DF804EB85
:1062E00003210220604700BD640E002000B58BB082
:1062F000DDF830C0CDF800C0DDF834C0CDF804C002
:10630000DDF838C0CDF808C0BDF83CC0CDF80CC0F1
:10631000DDF840C0CDF810C0DDF844C0CDF814C0A1
:10632000DDF848C0CDF818C0DDF84CC0CDF81CC071
:10633000DDF850C0CDF820C04FF0000CCDF824C0DF
:10634000FEF798FF0BB000BDBDF80CC0CDF80CC037
:10635000FEF790BF2DE9F04704461846284B2C2540
:1063600005FB043382B05C68BDF8347014F831600A
:106370009DF838809DF8449004EBC10E9EF80340D0
:106380009EF8015004F1010C5FFA8CFC664598BF41
:106390004FF0000C65452ED0154604EB4404DEF8A2
:1063A0000420DEF804A0260102EB041405220AF8FA
:1063B00006200A9AA2600B9AE2600C9A22610F9A58
:1063C000A262109AE262022265706060A78284F87D
:1063D000168084F81790A2708EF803C01A6A5D6A5E
:1063E000019308469047019B00220421A847A0780A
:1063F00002B0BDE8F087012002B0BDE8F08700BF21
:10640000640E002000B589B0DDF828C0CDF800C0CA
:10641000DDF82CC0CDF804C0DDF830C0CDF808C0E0
:10642000BDF834C0CDF80CC09DF838C0CDF810C010
:10643000DDF83CC0CDF814C0DDF840C0CDF818C080
:106440004FF0000CCDF81CC0FFF784FF09B000BD71
:10645000F0B51F4C054618462C2303FB0543164692
:106460005A6802EBC10E12F831509EF803409EF8B4
:10647000012004F1010C5FFA8CFC654598BF4FF0D8
:10648000000C624583B01FD002460846DEF80410B7
:10649000DEF8047004EB4404250101EB0414072129
:1064A0007955A262089AE26202226670A2708EF8A2
:1064B00003C0D3E9082501939047019B00220421E2
:1064C000A847A07803B0F0BD012003B0F0BD00BF25
:1064D000640E002002F030BA401A20F07F4070476E
:1064E00000200021704700BF042303700B70704729
:1064F00010B582B004460020019101F0ABF980B9DB
:1065000001993CB90848062241B107F09CF90020E6
:1065100002B010BD054806220029F6D107F09EF909
:10652000F5E70C2002B010BD980E0020900E002060
:10653000012804D808B90348704703487047002071
:10654000704700BF980E0020900E002001280FD841
:1065500000B583B050B9084B01930846062219468E
:1065600007F071F9019B184603B000BD034BF3E738
:1065700000231846704700BF980E0020900E0020A0
:1065800010B5044601F0AEFC38B901F09FFF48B9E0
:106590002046BDE8104005F021BD00DE01F096FF69
:1065A0000028F5D000DE2046BDE8104005F016BDFD
:1065B0000860014805F012BD1C12002005F00EBD58
:1065C0002DE9F041274D284F82B04FF00008D5E962
:1065D000000101AAFEF782FC064670B1019C002C66
:1065E00039D02379022B0BD000DED5E9000101AAB6
:1065F000FEF774FC06460028F0D102B0BDE8F08139
:10660000002268682946FEF771FCA2682AB1137857
:10661000002B25D01378013B1370237B03B100DEE0
:1066200084F80C807B7D397D0133DBB2052B08BFFC
:106630000023994212D02660797D47F821407B756E
:10664000002AC4D01378002BC1D19368002BBED090
:10665000D0689847BBE700DE019CC2E700DEEFE7A9
:1066600000DED7E7CC0E0020FC1000202DE9F04121
:10667000184F3A88FE2A24D812F0FF081FD0164D72
:106680006C7D2B7D15480134E4B2052C08BF002435
:106690009C4214D0FEF7C4FB064680B11048FEF7BA
:1066A000BFFB88B106606B7D45F823003B886C75A5
:1066B00008F1FF32013B12F0FF083B80E1D1BDE859
:1066C000F0814FF0FF08DAE730460449BDE8F041B9
:1066D000FEF7C4BBD40E00206C100020D80E0020A2
:1066E000140F00202DE9F8432D4B2E4E042298184C
:1066F00014210027B782FEF767FB2B4B04220821E9
:106700009818FEF761FB96F81480747D4FF0040929
:106710000134E4B2052C08BF0024A045224813D060
:10672000FEF77EFB054678B11D48FEF779FB002891
:1067300031D06F600560737D46F8230009F1FF33A7
:1067400013F0FF097475E3D1184B0522181D44217D
:10675000FEF73AFB164B0722181D0821FEF734FB03
:106760001348FEF75DFB90B1124A111FFEF7ACFB18
:106770000F48FEF755FB60B10F4A111FFEF7A4FB4F
:106780000E4B04221A80BDE8F843FFF76FBF00DE0E
:10679000EAE700DEF0E704492846FEF75FFBD3E7AF
:1067A000A8100020FC10002084100020140F0020EE
:1067B000D80E0020D00E0020C80E0020D40E0020DD
:1067C00000B5204B87B0186002F084F81E4B1A7891
:1067D0007AB31E4ADFF878E0DFF878C01E49CDE9C9
:1067E000042E1E4A0220CDE9022C04234FF00C0C8B
:1067F000CDE9001C1A4A087408760B700B72002051
:106800000321FFF717FDD0B901220021154809F037
:10681000FAFB01F0FBFA08B107B000BDFFF762FF19
:1068200001F03EFE0028F7D107B05DF804EB00F060
:10683000ADBFFEF76BFB044B01221A70C9E700DE07
:10684000E2E700BF181200203C1B00203D90000032
:10685000D99000001D900000741400203412002014
:10686000941400201C12002010B586B000F094FF94
:1068700028BB164A164B0021A2F80011998201226A
:10688000684609F0C0FB134B00210A460320C3F8F9
:1068900008D0FEF75FFBA0B94FF0FF324FF0FF3397
:1068A000684605F0D5FB00F0B7FF60B9FFF71AFFA7
:1068B0000021012006B0BDE81040FFF719BE00DE40
:1068C000D7E700DEE8E700DEF0E700BF14110020A4
:1068D0006C1000202403002008B5FFF7C5FF01F06D
:1068E000CBFA00B108BDBDE80840FFF7DBBC00BF34
:1068F00010B50022074B82B00260044601AAD3E91A
:106900000001FEF7EBFA08B1019B2360002002B002
:1069100010BD00BFC40E002000B50B4983B000239A
:106920004868019301AAFEF7E1FA50B10749FEF762
:1069300095FA019B1B790BB12D2B00D000DE03B023
:1069400000BD00DEF2E700BFC40E0020D80E00201C
:1069500070B5046806464CB10F4D20462468037993
:1069600053B12D2B09D000DE002CF6D1002333606B
:10697000BDE87040FFF77ABE00DE2B88032B07D8F6
:10698000013306492B80FEF769FA002CE5D1EDE7CB
:1069900000DE2B88F4E700BFD40E0020140F002087
:1069A000022802D00B68022B0DD000B583B00191F4
:1069B0004FF0FF324FF0FF33034805F049FB0199D8
:1069C000086803B000BD70471C120020044A136819
:1069D0000BB118467047034610601846704700BF59
:1069E000C00E0020044A136823B1984206BF00215C
:1069F0001160002318467047C00E0020014B186834
:106A0000704700BFC00E002070B50468237886B0C0
:106A1000EBB1054601220021684609F0F4FA0D4B5E
:106A2000C4F80CD0A36023788BB10B4B0022114625
:106A300003209D60FEF78EFA38B94FF40042002320
:106A4000684605F005FB06B070BD00DEF5E76FF0A7
:106A50007700F8E7BD650000140300200B490A7DAC
:106A60004B7D9A420AD8A3EB020C5FFA8CFC60457E
:106A700009D89A4207D051F82200704705339B1A73
:106A8000DBB29842F7D90020704700BF6C1000209D
:106A90002DE9F043184D95F801C195F800E10CF18E
:106AA0000104E4B2082C83B008BF0024A6459DF879
:106AB00028601CD01F4605EB4C13894680461146C2
:106AC00018461022019306F0BEFE019B1A7FC3F800
:106AD000189006F0010022F003020243C3E9047893
